{
  "contractName": "EthSwap",
  "abi": [
    {
      "inputs": [
        {
          "internalType": "contract ERC20",
          "name": "_token",
          "type": "address"
        }
      ],
      "stateMutability": "nonpayable",
      "type": "constructor"
    },
    {
      "inputs": [],
      "name": "rate",
      "outputs": [
        {
          "internalType": "uint256",
          "name": "",
          "type": "uint256"
        }
      ],
      "stateMutability": "view",
      "type": "function",
      "constant": true
    },
    {
      "inputs": [],
      "name": "token",
      "outputs": [
        {
          "internalType": "contract ERC20",
          "name": "",
          "type": "address"
        }
      ],
      "stateMutability": "view",
      "type": "function",
      "constant": true
    },
    {
      "inputs": [],
      "name": "getToken",
      "outputs": [
        {
          "internalType": "address",
          "name": "",
          "type": "address"
        }
      ],
      "stateMutability": "view",
      "type": "function",
      "constant": true
    },
    {
      "inputs": [],
      "name": "getSwapBalance",
      "outputs": [
        {
          "internalType": "uint256",
          "name": "",
          "type": "uint256"
        }
      ],
      "stateMutability": "view",
      "type": "function",
      "constant": true
    },
    {
      "inputs": [],
      "name": "getMsgSender",
      "outputs": [
        {
          "internalType": "address",
          "name": "",
          "type": "address"
        }
      ],
      "stateMutability": "view",
      "type": "function",
      "constant": true
    },
    {
      "inputs": [],
      "name": "buyToken",
      "outputs": [],
      "stateMutability": "payable",
      "type": "function",
      "payable": true
    },
    {
      "inputs": [
        {
          "internalType": "uint256",
          "name": "_amount",
          "type": "uint256"
        }
      ],
      "name": "sellToken",
      "outputs": [],
      "stateMutability": "payable",
      "type": "function",
      "payable": true
    }
  ],
  "bytecode": "0x6080604052606460015534801561001557600080fd5b50604051610ad1380380610ad1833981810160405281019061003791906100f2565b806000806101000a81548173ffffffffffffffffffffffffffffffffffffffff021916908373ffffffffffffffffffffffffffffffffffffffff1602179055505061011f565b600080fd5b600073ffffffffffffffffffffffffffffffffffffffff82169050919050565b60006100ad82610082565b9050919050565b60006100bf826100a2565b9050919050565b6100cf816100b4565b81146100da57600080fd5b50565b6000815190506100ec816100c6565b92915050565b6000602082840312156101085761010761007d565b5b6000610116848285016100dd565b91505092915050565b6109a38061012e6000396000f3fe6080604052600436106100705760003560e01c80637a6ce2e11161004e5780637a6ce2e1146100e7578063a482171914610112578063c7b00aad1461011c578063fc0c546a1461014757610070565b806321df0da7146100755780632397e4d7146100a05780632c4e722e146100bc575b600080fd5b34801561008157600080fd5b5061008a610172565b60405161009791906105f1565b60405180910390f35b6100ba60048036038101906100b59190610647565b61019b565b005b3480156100c857600080fd5b506100d161034c565b6040516100de9190610683565b60405180910390f35b3480156100f357600080fd5b506100fc610352565b60405161010991906105f1565b60405180910390f35b61011a61035a565b005b34801561012857600080fd5b506101316104ea565b60405161013e9190610683565b60405180910390f35b34801561015357600080fd5b5061015c61058c565b60405161016991906106fd565b60405180910390f35b60008060009054906101000a900473ffffffffffffffffffffffffffffffffffffffff16905090565b8060008054906101000a900473ffffffffffffffffffffffffffffffffffffffff1673ffffffffffffffffffffffffffffffffffffffff166370a08231336040518263ffffffff1660e01b81526004016101f591906105f1565b602060405180830381865afa158015610212573d6000803e3d6000fd5b505050506040513d601f19601f82011682018060405250810190610236919061072d565b101561024157600080fd5b60006001548261025191906107b8565b90508047101561026057600080fd5b60008054906101000a900473ffffffffffffffffffffffffffffffffffffffff1673ffffffffffffffffffffffffffffffffffffffff166323b872dd3330856040518463ffffffff1660e01b81526004016102bd939291906107e9565b6020604051808303816000875af11580156102dc573d6000803e3d6000fd5b505050506040513d601f19601f820116820180604052508101906103009190610858565b503373ffffffffffffffffffffffffffffffffffffffff166108fc829081150290604051600060405180830381858888f19350505050158015610347573d6000803e3d6000fd5b505050565b60015481565b600033905090565b60006001543461036a9190610885565b90508060008054906101000a900473ffffffffffffffffffffffffffffffffffffffff1673ffffffffffffffffffffffffffffffffffffffff166370a08231306040518263ffffffff1660e01b81526004016103c691906105f1565b602060405180830381865afa1580156103e3573d6000803e3d6000fd5b505050506040513d601f19601f82011682018060405250810190610407919061072d565b1015610448576040517f08c379a000000000000000000000000000000000000000000000000000000000815260040161043f90610924565b60405180910390fd5b60008054906101000a900473ffffffffffffffffffffffffffffffffffffffff1673ffffffffffffffffffffffffffffffffffffffff1663a9059cbb33836040518363ffffffff1660e01b81526004016104a3929190610944565b6020604051808303816000875af11580156104c2573d6000803e3d6000fd5b505050506040513d601f19601f820116820180604052508101906104e69190610858565b5050565b60008060009054906101000a900473ffffffffffffffffffffffffffffffffffffffff1673ffffffffffffffffffffffffffffffffffffffff166370a08231336040518263ffffffff1660e01b815260040161054691906105f1565b602060405180830381865afa158015610563573d6000803e3d6000fd5b505050506040513d601f19601f82011682018060405250810190610587919061072d565b905090565b60008054906101000a900473ffffffffffffffffffffffffffffffffffffffff1681565b600073ffffffffffffffffffffffffffffffffffffffff82169050919050565b60006105db826105b0565b9050919050565b6105eb816105d0565b82525050565b600060208201905061060660008301846105e2565b92915050565b600080fd5b6000819050919050565b61062481610611565b811461062f57600080fd5b50565b6000813590506106418161061b565b92915050565b60006020828403121561065d5761065c61060c565b5b600061066b84828501610632565b91505092915050565b61067d81610611565b82525050565b60006020820190506106986000830184610674565b92915050565b6000819050919050565b60006106c36106be6106b9846105b0565b61069e565b6105b0565b9050919050565b60006106d5826106a8565b9050919050565b60006106e7826106ca565b9050919050565b6106f7816106dc565b82525050565b600060208201905061071260008301846106ee565b92915050565b6000815190506107278161061b565b92915050565b6000602082840312156107435761074261060c565b5b600061075184828501610718565b91505092915050565b7f4e487b7100000000000000000000000000000000000000000000000000000000600052601260045260246000fd5b7f4e487b7100000000000000000000000000000000000000000000000000000000600052601160045260246000fd5b60006107c382610611565b91506107ce83610611565b9250826107de576107dd61075a565b5b828204905092915050565b60006060820190506107fe60008301866105e2565b61080b60208301856105e2565b6108186040830184610674565b949350505050565b60008115159050919050565b61083581610820565b811461084057600080fd5b50565b6000815190506108528161082c565b92915050565b60006020828403121561086e5761086d61060c565b5b600061087c84828501610843565b91505092915050565b600061089082610611565b915061089b83610611565b92508282026108a981610611565b915082820484148315176108c0576108bf610789565b5b5092915050565b600082825260208201905092915050565b7f6572720000000000000000000000000000000000000000000000000000000000600082015250565b600061090e6003836108c7565b9150610919826108d8565b602082019050919050565b6000602082019050818103600083015261093d81610901565b9050919050565b600060408201905061095960008301856105e2565b6109666020830184610674565b939250505056fea2646970667358221220472a66cf12a694980f31255e3bdfbc2eb70794bbcb481398af46473b8447ab6f64736f6c63430008110033",
  "immutableReferences": {},
  "source": "// SPDX-License-Identifier: MIT\r\npragma solidity ^0.8.17;\r\n\r\n// import   nodemodules/openzeppelin//contracts/token/ERC20   \r\nimport \"../node_modules/openzeppelin-solidity/contracts/token/ERC20/ERC20.sol\";\r\n\r\ncontract EthSwap{\r\n    // ERC20  token  \r\n    // CA  \r\n    //   ERC20        \r\n    // SoonToken.sol        token  \r\n    //   .  CA      \r\n    ERC20 public token;\r\n\r\n    //   \r\n    uint public rate = 100;\r\n\r\n    constructor(ERC20 _token){\r\n        // CA  .\r\n        token = _token;\r\n    }\r\n\r\n    function getToken() public view returns(address) {\r\n        // SoonToken  CA \r\n        return address(token);\r\n    }\r\n    function getSwapBalance() public view returns(uint){\r\n        return token.balanceOf(msg.sender);\r\n    }\r\n    function getMsgSender() public view returns(address){\r\n        return msg.sender;\r\n    }\r\n\r\n    //   \r\n    function buyToken() public payable {\r\n        uint256 tokenAmount = msg.value * rate;\r\n        // this     this == EthSwap\r\n        // address(this) ==   CA\r\n        // require      2     \r\n        //        \r\n        //          .\r\n        //      gas \r\n        require(token.balanceOf(address(this))>=tokenAmount,\"err\");\r\n        token.transfer(msg.sender,tokenAmount);\r\n    }\r\n\r\n    //   \r\n    function sellToken(uint256 _amount) public payable{\r\n        require(token.balanceOf(msg.sender)>=_amount);\r\n        uint256 etherAmount = _amount/rate;\r\n        require(address(this).balance >= etherAmount);\r\n        token.transferFrom(msg.sender,address(this),_amount);\r\n        payable(msg.sender).transfer(etherAmount);\r\n    }\r\n}",
  "sourcePath": "C:\\Users\\KGA_\\Desktop\\block_class\\20221205\\contracts\\EthSwap.sol",
  "compiler": {
    "name": "solc",
    "version": "0.8.17+commit.8df45f5f.Emscripten.clang"
  },
  "schemaVersion": "3.4.11",
  "updatedAt": "2022-12-05T07:18:58.335Z",
  "networkType": "ethereum",
  "devdoc": {
    "kind": "dev",
    "methods": {},
    "version": 1
  },
  "userdoc": {
    "kind": "user",
    "methods": {},
    "version": 1
  }
}